:020000040000FA
:020000002E28A8
:08000800A000030EA100210E6F
:100010008300A00E200E09000B118B12080083161E
:100020000130810083120800051485100512851225
:1000300008000B1D19280C203D308100A20B192847
:1000400008000B1D21283D3081000C20A20B212827
:10005000080005168512051085100800831600306B
:1000600085009F010430810000308B00831207302F
:100070009900850114200C200F202830A2003D306B
:100080008100192085140A30A2003D308100212012
:1000900029202830A2003D308100192085160A3021
:0C00A000A2003D308100212014203B28EC
:02400E00A43FCD
:00000001FF
