:020000040000FA
:020000009C283A
:08000800A000030EA100210E6F
:100010008300A00E200E09000B118B120800043083
:10002000A30008000F2097203030A2004F200F209F
:1000300091203030A2004F200F2088203030A200C5
:100040004F200F2082202030A2004F200F2082203E
:100050002030A2004F200F204030A2004F200F2060
:1000600082200030A2004F200F201030A2004F202D
:100070000F208B200030A2004F200F206030A20004
:100080004F200F2082200030A2004F200F20603030
:10009000A2004F2082200800051405100800A20DC0
:1000A0000318572805124C20A30B4F285A28051671
:1000B0004C20542805124C2005164C2005124C20CB
:1000C0004C208516000085120800A20D03186D282B
:1000D00005124C20A30B6528702805164C206A28B1
:1000E00005164C2005164C204C204C20851600008F
:1000F000851208002608303EA2000F2065200F2040
:1001000065200800FE3081000B1D84280C200800AB
:10011000822082200800E23081000B1D8D280C20F7
:100120000800BF3081000B1D93280C20080091208F
:10013000912091209120080083160430850014300E
:100140009F000530810000308B008312073099003A
:1001500009309F0085011220A401A501A601A70175
:100160000430A8009F149F18B3281E08A507031881
:10017000A40AA80BB2280230A800A40CA50C0310F6
:10018000A80BBD282508A7000230A800A70DA60DC2
:100190000310A80BC6282508A7070318A60A2608D7
:1001A0007A202E30A200A6010F2065200F206520A6
:1001B0002708A5000330A800A70DA60D0310A80B63
:1001C000DC282508A7070318A60A2508A70703188F
:1001D000A60A26087A205630A200A6010F20652024
:0401E0000F20652067
:02400E00A43FCD
:00000001FF
