:020000040000FA
:02000000EE28E8
:08000800A000030EA100210E6F
:100010008300A00E200E090008000B118B120800AF
:100020000430A30008001020E9203030A200502046
:100030001020E3203030A20050201020DA20303091
:10004000A20050201020D4202030A20050201020E8
:10005000D4202030A200502010204030A200502098
:100060001020D4200030A200502010201030A20018
:1000700050201020DD200030A200502010206030E1
:10008000A20050201020D4200030A20050201020C8
:100090006030A2005020D42008000514051008008C
:1000A000A20D0318582805124D20A30B50285B28D9
:1000B00005164D20552805124D2005164D20051218
:1000C0004D204D208516000085120800A20D031852
:1000D0006E2805124D20A30B6628712805164D20A9
:1000E0006B2805164D2005164D204D204D208516F8
:1000F000000085120800AA0DA90DA80DA70DA60DD8
:1001000008004830CC204530CC204E30CC20523036
:10011000CC204930CC205130CC205530CC2045303B
:10012000CC204830CC205430CC204530CC204D3031
:10013000CC205030CC203D30CC20A5010A30A80284
:100140000318CA283030A5072508CC200A30A60796
:100150003030A6072608CC204330CC202030CC20DD
:100160005530CC205230CC203D30CC20A5010A3077
:10017000A6020318C8283030A5072508CC200A306D
:10018000A6073030A6072608CC202530CC20080052
:10019000A50AB728A50A9E28A20010206620DD2007
:1001A00010206620DD200800FE3081000B1DD628BF
:1001B0000D200800D420D4200800E23081000B1D5F
:1001C000DF280D200800BF3081000B1DE5280D2021
:1001D0000800E320E320E320E3200800831600303A
:1001E00085009F010530810000308B0083120730AD
:1001F000990005152830A40083160030850083126D
:100200000511E920E320051583160430853083129B
:1002100005190829D420D420D420D420D420831632
:100220000030810083120030810005191529143037
:1002300081027B208316053081008312D420A40B19
:060240000F298120FA28BD
:02400E00A43FCD
:00000001FF
