:020000040000FA
:020000003328A3
:08000800A000030EA1000B197A
:1000100023280B10051C1128851C1428051D1D28DC
:10002000202805120B112E28051D17281A2810301C
:10003000A20023284C30A20023287130A2002328DC
:100040008730A2002328051C1128220881000B11EB
:10005000051A2C2805162E2805122E28210E83009D
:10006000A00E200E090083160F3085009F0103307B
:100070008100A8308B00073096008312073099006A
:060080000030850042285B
:02400E00A43FCD
:00000001FF
