:020000040000FA
:020000008F2847
:08000800A000030EA100210E6F
:100010008300A00E200E09000B118B120800043083
:10002000A30008000F208A203030A2004F200F20AC
:1000300084203030A2004F200F207B203030A200DF
:100040004F200F2075202030A2004F200F20752058
:100050002030A2004F200F208030A2004F200F2020
:1000600075200030A2004F200F201030A2004F203A
:100070000F207E200030A2004F200F201030A20061
:100080004F200F2075200030A2004F200F2060303D
:10009000A2004F2075200800051405100800A20DCD
:1000A0000318572805124C20A30B4F285A28051671
:1000B0004C20542805124C2005164C204C204C2076
:1000C00085160800A20D03186A2805124C20A30B00
:1000D00062286D2805164C20672805164C20051649
:1000E0004C204C204C2085160800FF3081000B1D51
:1000F00077280C200800752075200800E330810067
:100100000B1D80280C200800C03081000B1D8628A4
:100110000C2008008420842084208420080083167A
:10012000003085009F010530810000308B00831274
:1001300007309900850112204830A2000F2062206C
:0E01400062206530A2000F20622062209C2801
:02400E00A43FCD
:00000001FF
